{
  "contractName": "Authorisation",
  "abi": [
    {
      "inputs": [
        {
          "components": [
            {
              "internalType": "address",
              "name": "owner",
              "type": "address"
            },
            {
              "internalType": "enum LibAuthorisation.Permissions",
              "name": "permission",
              "type": "uint8"
            }
          ],
          "internalType": "struct LibAuthorisation.Authorisation",
          "name": "_authorisation",
          "type": "tuple"
        }
      ],
      "name": "createUser",
      "outputs": [
        {
          "internalType": "bool",
          "name": "success",
          "type": "bool"
        }
      ],
      "stateMutability": "nonpayable",
      "type": "function"
    },
    {
      "inputs": [
        {
          "components": [
            {
              "internalType": "address",
              "name": "owner",
              "type": "address"
            },
            {
              "internalType": "enum LibAuthorisation.Permissions",
              "name": "permission",
              "type": "uint8"
            }
          ],
          "internalType": "struct LibAuthorisation.Authorisation",
          "name": "_authorisation",
          "type": "tuple"
        }
      ],
      "name": "createAdmin",
      "outputs": [
        {
          "internalType": "bool",
          "name": "success",
          "type": "bool"
        }
      ],
      "stateMutability": "nonpayable",
      "type": "function"
    },
    {
      "inputs": [
        {
          "internalType": "address",
          "name": "_address",
          "type": "address"
        }
      ],
      "name": "getAuthorisation",
      "outputs": [
        {
          "internalType": "bool",
          "name": "success",
          "type": "bool"
        },
        {
          "components": [
            {
              "internalType": "address",
              "name": "owner",
              "type": "address"
            },
            {
              "internalType": "enum LibAuthorisation.Permissions",
              "name": "permission",
              "type": "uint8"
            }
          ],
          "internalType": "struct LibAuthorisation.Authorisation",
          "name": "authorisation",
          "type": "tuple"
        }
      ],
      "stateMutability": "view",
      "type": "function"
    },
    {
      "inputs": [
        {
          "components": [
            {
              "internalType": "address",
              "name": "owner",
              "type": "address"
            },
            {
              "internalType": "enum LibAuthorisation.Permissions",
              "name": "permission",
              "type": "uint8"
            }
          ],
          "internalType": "struct LibAuthorisation.Authorisation",
          "name": "_authorisation",
          "type": "tuple"
        }
      ],
      "name": "updateAuthorisation",
      "outputs": [
        {
          "internalType": "bool",
          "name": "success",
          "type": "bool"
        }
      ],
      "stateMutability": "nonpayable",
      "type": "function"
    },
    {
      "inputs": [
        {
          "internalType": "address",
          "name": "_address",
          "type": "address"
        }
      ],
      "name": "deleteAuthorisation",
      "outputs": [
        {
          "internalType": "bool",
          "name": "success",
          "type": "bool"
        }
      ],
      "stateMutability": "nonpayable",
      "type": "function"
    }
  ],
  "bytecode": "0x608060405234801561001057600080fd5b50611170806100206000396000f3fe608060405234801561001057600080fd5b50600436106100575760003560e01c8063890a33971461005c578063b972d0511461008c578063bc66f6ed146100bd578063f160700d146100ed578063f6bfd3281461011d575b600080fd5b61007660048036038101906100719190610f1b565b61014d565b6040516100839190610f63565b60405180910390f35b6100a660048036038101906100a19190610f7e565b610416565b6040516100b4929190611060565b60405180910390f35b6100d760048036038101906100d29190610f7e565b6105e0565b6040516100e49190610f63565b60405180910390f35b61010760048036038101906101029190610f1b565b610876565b6040516101149190610f63565b60405180910390f35b61013760048036038101906101329190610f1b565b610b71565b6040516101449190610f63565b60405180910390f35b6000816020015160038081111561016757610166610fba565b5b81600381111561017a57610179610fba565b5b1061018457600080fd5b82600001516000610193610d1d565b9050600060038111156101a9576101a8610fba565b5b8160010160008473ffffffffffffffffffffffffffffffffffffffff1673ffffffffffffffffffffffffffffffffffffffff16815260200190815260200160002060000160149054906101000a900460ff16600381111561020d5761020c610fba565b5b141561021857600080fd5b6000610222610d1d565b90506002600381111561023857610237610fba565b5b8660200151600381111561024f5761024e610fba565b5b141561025a57600080fd5b6000600381111561026e5761026d610fba565b5b816001016000886000015173ffffffffffffffffffffffffffffffffffffffff1673ffffffffffffffffffffffffffffffffffffffff16815260200190815260200160002060000160149054906101000a900460ff1660038111156102d6576102d5610fba565b5b146102e057600080fd5b85816001016000886000015173ffffffffffffffffffffffffffffffffffffffff1673ffffffffffffffffffffffffffffffffffffffff16815260200190815260200160002060008201518160000160006101000a81548173ffffffffffffffffffffffffffffffffffffffff021916908373ffffffffffffffffffffffffffffffffffffffff16021790555060208201518160000160146101000a81548160ff0219169083600381111561039857610397610fba565b5b02179055509050508060020186600001519080600181540180825580915050600190039060005260206000200160009091909190916101000a81548173ffffffffffffffffffffffffffffffffffffffff021916908373ffffffffffffffffffffffffffffffffffffffff1602179055506001945050505050919050565b6000610420610d66565b82600061042b610d1d565b90506000600381111561044157610440610fba565b5b8160010160008473ffffffffffffffffffffffffffffffffffffffff1673ffffffffffffffffffffffffffffffffffffffff16815260200190815260200160002060000160149054906101000a900460ff1660038111156104a5576104a4610fba565b5b14156104b057600080fd5b60006104ba610d1d565b90508060010160008773ffffffffffffffffffffffffffffffffffffffff1673ffffffffffffffffffffffffffffffffffffffff1681526020019081526020016000206040518060400160405290816000820160009054906101000a900473ffffffffffffffffffffffffffffffffffffffff1673ffffffffffffffffffffffffffffffffffffffff1673ffffffffffffffffffffffffffffffffffffffff1681526020016000820160149054906101000a900460ff16600381111561058357610582610fba565b5b600381111561059557610594610fba565b5b815250509350600073ffffffffffffffffffffffffffffffffffffffff16846000015173ffffffffffffffffffffffffffffffffffffffff16146105d857600194505b505050915091565b60008160006105ed610d1d565b90506000600381111561060357610602610fba565b5b8160010160008473ffffffffffffffffffffffffffffffffffffffff1673ffffffffffffffffffffffffffffffffffffffff16815260200190815260200160002060000160149054906101000a900460ff16600381111561066757610666610fba565b5b141561067257600080fd5b600061067c610d1d565b90506002600381111561069257610691610fba565b5b8160010160003373ffffffffffffffffffffffffffffffffffffffff1673ffffffffffffffffffffffffffffffffffffffff16815260200190815260200160002060000160149054906101000a900460ff1660038111156106f6576106f5610fba565b5b1461070057600080fd5b600061070a610d1d565b905060005b816002018054905081101561086c578673ffffffffffffffffffffffffffffffffffffffff1682600201828154811061074b5761074a611089565b5b9060005260206000200160009054906101000a900473ffffffffffffffffffffffffffffffffffffffff1673ffffffffffffffffffffffffffffffffffffffff161415610859578160020181815481106107a8576107a7611089565b5b9060005260206000200160006101000a81549073ffffffffffffffffffffffffffffffffffffffff02191690558160010160008873ffffffffffffffffffffffffffffffffffffffff1673ffffffffffffffffffffffffffffffffffffffff168152602001908152602001600020600080820160006101000a81549073ffffffffffffffffffffffffffffffffffffffff02191690556000820160146101000a81549060ff02191690555050600195505b8080610864906110f1565b91505061070f565b5050505050919050565b600080610881610d1d565b90508060000160009054906101000a900473ffffffffffffffffffffffffffffffffffffffff1673ffffffffffffffffffffffffffffffffffffffff163373ffffffffffffffffffffffffffffffffffffffff16146108df57600080fd5b82602001516003808111156108f7576108f6610fba565b5b81600381111561090a57610909610fba565b5b1061091457600080fd5b83600001516000610923610d1d565b90506000600381111561093957610938610fba565b5b8160010160008473ffffffffffffffffffffffffffffffffffffffff1673ffffffffffffffffffffffffffffffffffffffff16815260200190815260200160002060000160149054906101000a900460ff16600381111561099d5761099c610fba565b5b14156109a857600080fd5b60006109b2610d1d565b9050600060038111156109c8576109c7610fba565b5b816001016000896000015173ffffffffffffffffffffffffffffffffffffffff1673ffffffffffffffffffffffffffffffffffffffff16815260200190815260200160002060000160149054906101000a900460ff166003811115610a3057610a2f610fba565b5b14610a3a57600080fd5b86816001016000896000015173ffffffffffffffffffffffffffffffffffffffff1673ffffffffffffffffffffffffffffffffffffffff16815260200190815260200160002060008201518160000160006101000a81548173ffffffffffffffffffffffffffffffffffffffff021916908373ffffffffffffffffffffffffffffffffffffffff16021790555060208201518160000160146101000a81548160ff02191690836003811115610af257610af1610fba565b5b02179055509050508060020187600001519080600181540180825580915050600190039060005260206000200160009091909190916101000a81548173ffffffffffffffffffffffffffffffffffffffff021916908373ffffffffffffffffffffffffffffffffffffffff160217905550600195505050505050919050565b600081600001516000610b82610d1d565b905060006003811115610b9857610b97610fba565b5b8160010160008473ffffffffffffffffffffffffffffffffffffffff1673ffffffffffffffffffffffffffffffffffffffff16815260200190815260200160002060000160149054906101000a900460ff166003811115610bfc57610bfb610fba565b5b1415610c0757600080fd5b600073ffffffffffffffffffffffffffffffffffffffff16846000015173ffffffffffffffffffffffffffffffffffffffff161415610c4557600080fd5b6000610c4f610d1d565b905084816001016000876000015173ffffffffffffffffffffffffffffffffffffffff1673ffffffffffffffffffffffffffffffffffffffff16815260200190815260200160002060008201518160000160006101000a81548173ffffffffffffffffffffffffffffffffffffffff021916908373ffffffffffffffffffffffffffffffffffffffff16021790555060208201518160000160146101000a81548160ff02191690836003811115610d0957610d08610fba565b5b021790555090505060019350505050919050565b6000806040518060400160405280601181526020017f6c69622e617574686f7269736174696f6e0000000000000000000000000000008152508051906020012090508091505090565b6040518060400160405280600073ffffffffffffffffffffffffffffffffffffffff16815260200160006003811115610da257610da1610fba565b5b81525090565b6000604051905090565b600080fd5b600080fd5b6000601f19601f8301169050919050565b7f4e487b7100000000000000000000000000000000000000000000000000000000600052604160045260246000fd5b610e0582610dbc565b810181811067ffffffffffffffff82111715610e2457610e23610dcd565b5b80604052505050565b6000610e37610da8565b9050610e438282610dfc565b919050565b600073ffffffffffffffffffffffffffffffffffffffff82169050919050565b6000610e7382610e48565b9050919050565b610e8381610e68565b8114610e8e57600080fd5b50565b600081359050610ea081610e7a565b92915050565b60048110610eb357600080fd5b50565b600081359050610ec581610ea6565b92915050565b600060408284031215610ee157610ee0610db7565b5b610eeb6040610e2d565b90506000610efb84828501610e91565b6000830152506020610f0f84828501610eb6565b60208301525092915050565b600060408284031215610f3157610f30610db2565b5b6000610f3f84828501610ecb565b91505092915050565b60008115159050919050565b610f5d81610f48565b82525050565b6000602082019050610f786000830184610f54565b92915050565b600060208284031215610f9457610f93610db2565b5b6000610fa284828501610e91565b91505092915050565b610fb481610e68565b82525050565b7f4e487b7100000000000000000000000000000000000000000000000000000000600052602160045260246000fd5b60048110610ffa57610ff9610fba565b5b50565b600081905061100b82610fe9565b919050565b600061101b82610ffd565b9050919050565b61102b81611010565b82525050565b6040820160008201516110476000850182610fab565b50602082015161105a6020850182611022565b50505050565b60006060820190506110756000830185610f54565b6110826020830184611031565b9392505050565b7f4e487b7100000000000000000000000000000000000000000000000000000000600052603260045260246000fd5b7f4e487b7100000000000000000000000000000000000000000000000000000000600052601160045260246000fd5b6000819050919050565b60006110fc826110e7565b91507fffffffffffffffffffffffffffffffffffffffffffffffffffffffffffffffff82141561112f5761112e6110b8565b5b60018201905091905056fea26469706673582212206ec425fabe72ac037ec1ce5c3c1c7f1a153bbe61b3b77cff5c5e106ba513b23d64736f6c634300080a0033",
  "immutableReferences": {},
  "source": "pragma solidity ^0.8.0;\r\n\r\nimport \"./LibAuthorisation.sol\";\r\n\r\ncontract Authorisation{\r\n\r\n    // Used for self proxy calls \r\n    modifier onlyThis(address _address)\r\n    {\r\n        require(msg.sender == address(this));\r\n        _;\r\n    }\r\n\r\n    modifier onlyAdmin()\r\n    {\r\n        LibAuthorisation.AuthorisationStorage storage authStore = LibAuthorisation.authorisationStorage();\r\n        require(authStore.authorisations[msg.sender].permission == LibAuthorisation.Permissions.admin);\r\n        _;\r\n    }\r\n\r\n    modifier onlyContractOwner()\r\n    {\r\n        LibAuthorisation.AuthorisationStorage storage authStore = LibAuthorisation.authorisationStorage();\r\n        require(msg.sender == authStore.contractOwner);\r\n        _;   \r\n    }\r\n\r\n    modifier validPermission(\r\n        LibAuthorisation.Permissions _permission)\r\n    {\r\n        require (_permission < LibAuthorisation.Permissions.count);\r\n        _;\r\n    }\r\n\r\n    modifier existingUser(address owner)\r\n    {\r\n        LibAuthorisation.AuthorisationStorage storage authStore = LibAuthorisation.authorisationStorage();\r\n        require (authStore.authorisations[owner].permission != LibAuthorisation.Permissions.unrecognised);\r\n        _;\r\n    }\r\n\r\n    /// @notice CRUD for authorisations\r\n    /// @dev Uses a statically sized struct as input (Web3j compatible)\r\n    /// @return success CRUD operation status\r\n    function createUser(LibAuthorisation.Authorisation memory _authorisation) \r\n        external \r\n        validPermission(_authorisation.permission) \r\n        existingUser(_authorisation.owner) \r\n        returns (bool success)\r\n    {\r\n        LibAuthorisation.AuthorisationStorage storage authStore = LibAuthorisation.authorisationStorage();\r\n\r\n        // Can only create standard users\r\n        require (_authorisation.permission != LibAuthorisation.Permissions.admin);\r\n        // Must be a new user\r\n        require (authStore.authorisations[_authorisation.owner].permission == LibAuthorisation.Permissions.unrecognised);\r\n\r\n        authStore.authorisations[_authorisation.owner] = _authorisation;\r\n        authStore.authorisationIndex.push(_authorisation.owner);\r\n\r\n        return true;\r\n    }\r\n\r\n    function createAdmin(LibAuthorisation.Authorisation memory _authorisation) \r\n        external \r\n        onlyContractOwner\r\n        validPermission(_authorisation.permission) \r\n        existingUser(_authorisation.owner) \r\n        returns (bool success)\r\n    {\r\n        LibAuthorisation.AuthorisationStorage storage authStore = LibAuthorisation.authorisationStorage();\r\n        \r\n        require (authStore.authorisations[_authorisation.owner].permission == LibAuthorisation.Permissions.unrecognised);\r\n        authStore.authorisations[_authorisation.owner] = _authorisation;\r\n        authStore.authorisationIndex.push(_authorisation.owner);\r\n\r\n        return true;\r\n    }\r\n\r\n    function getAuthorisation(address _address) \r\n        external \r\n        view \r\n        existingUser(_address) \r\n        returns (\r\n            bool success, \r\n            LibAuthorisation.Authorisation memory authorisation)\r\n    {\r\n        LibAuthorisation.AuthorisationStorage storage authStore = LibAuthorisation.authorisationStorage();\r\n        authorisation = authStore.authorisations[_address];\r\n        if (authorisation.owner != address(0)) success = true;\r\n    }\r\n\r\n    function updateAuthorisation(LibAuthorisation.Authorisation memory _authorisation) \r\n        external \r\n        existingUser(_authorisation.owner) \r\n        returns (bool success)\r\n    {\r\n        require(_authorisation.owner != address(0));\r\n        LibAuthorisation.AuthorisationStorage storage authStore = LibAuthorisation.authorisationStorage();\r\n        authStore.authorisations[_authorisation.owner] = _authorisation;\r\n        return true;\r\n    }\r\n\r\n    function deleteAuthorisation (address _address) \r\n        external \r\n        existingUser(_address)\r\n        onlyAdmin \r\n        returns (bool success)\r\n    {\r\n        LibAuthorisation.AuthorisationStorage storage authStore = LibAuthorisation.authorisationStorage();\r\n        for (uint i; i < authStore.authorisationIndex.length; i++){\r\n            if (authStore.authorisationIndex[i] == _address){\r\n                delete authStore.authorisationIndex[i];\r\n                delete authStore.authorisations[_address];\r\n                success = true;\r\n            }\r\n        }\r\n    }\r\n}",
  "sourcePath": "C:\\Users\\Julia\\Documents\\Development\\Blockchain\\CBDC\\smart_contracts\\contracts\\Authorisation\\Authorisation.sol",
  "compiler": {
    "name": "solc",
    "version": "0.8.10+commit.fc410830.Emscripten.clang"
  },
  "schemaVersion": "3.4.3",
  "updatedAt": "2022-02-14T00:29:17.370Z",
  "devdoc": {
    "kind": "dev",
    "methods": {
      "createUser((address,uint8))": {
        "details": "Uses a statically sized struct as input (Web3j compatible)",
        "returns": {
          "success": "CRUD operation status"
        }
      }
    },
    "version": 1
  },
  "userdoc": {
    "kind": "user",
    "methods": {
      "createUser((address,uint8))": {
        "notice": "CRUD for authorisations"
      }
    },
    "version": 1
  }
}