{
  "contractName": "Entry",
  "abi": [
    {
      "stateMutability": "payable",
      "type": "fallback"
    },
    {
      "inputs": [],
      "name": "addContract",
      "outputs": [
        {
          "internalType": "bool",
          "name": "success",
          "type": "bool"
        }
      ],
      "stateMutability": "nonpayable",
      "type": "function"
    }
  ],
  "bytecode": "0x608060405234801561001057600080fd5b50610220806100206000396000f3fe6080604052600436106100225760003560e01c80632abd481c1461013b57610023565b5b600061002d610166565b9050600081600001600080357fffffffff00000000000000000000000000000000000000000000000000000000167bffffffffffffffffffffffffffffffffffffffffffffffffffffffff19167bffffffffffffffffffffffffffffffffffffffffffffffffffffffff19168152602001908152602001600020600080815260200190815260200160002060009054906101000a900473ffffffffffffffffffffffffffffffffffffffff169050600073ffffffffffffffffffffffffffffffffffffffff168173ffffffffffffffffffffffffffffffffffffffff16141561011557600080fd5b3660008037600080366000845af43d6000803e8060008114610136573d6000f35b3d6000fd5b34801561014757600080fd5b506101506101af565b60405161015d91906101cf565b60405180910390f35b6000806040518060400160405280600e81526020017f6c69622e7265706f7369746f72790000000000000000000000000000000000008152508051906020012090508091505090565b600090565b60008115159050919050565b6101c9816101b4565b82525050565b60006020820190506101e460008301846101c0565b9291505056fea264697066735822122019b745d8d57d4df4f209ddac0646de2790c5b7f2afc2a359d78af61e2cabaa2464736f6c634300080a0033",
  "immutableReferences": {},
  "source": "pragma solidity ^0.8.0;\r\n\r\nimport \"./ContractRepository.sol\";\r\n\r\ncontract Entry {\r\n\r\n    function addContract() public returns (bool success){\r\n\r\n    }\r\n\r\n    fallback() external payable {\r\n        ContractRepository.RepositoryStorage storage repoStore = ContractRepository.repositoryStorage();\r\n        address implementation = repoStore.contractVersionStore[msg.sig][0];\r\n        require(implementation != address(0));\r\n\r\n        assembly {\r\n            calldatacopy(0, 0, calldatasize())\r\n            let result := delegatecall(gas(), implementation, 0, calldatasize(), 0, 0)\r\n            returndatacopy(0, 0, returndatasize())\r\n            switch result\r\n            case 0 {\r\n                revert(0, returndatasize())\r\n            }\r\n            default {\r\n                return(0, returndatasize())\r\n            }\r\n        }\r\n    }\r\n}\r\n",
  "sourcePath": "C:\\Users\\Julia\\Documents\\Development\\Blockchain\\CBDC\\smart_contracts\\contracts\\Proxy\\Entry.sol",
  "compiler": {
    "name": "solc",
    "version": "0.8.10+commit.fc410830.Emscripten.clang"
  },
  "schemaVersion": "3.4.3",
  "updatedAt": "2022-02-14T00:29:17.394Z",
  "devdoc": {
    "kind": "dev",
    "methods": {},
    "version": 1
  },
  "userdoc": {
    "kind": "user",
    "methods": {},
    "version": 1
  }
}